{
  "_format": "hh-sol-artifact-1",
  "contractName": "SwitchAssets",
  "sourceName": "contracts/SwitchAssets.sol",
  "abi": [
    {
      "inputs": [
        {
          "internalType": "address",
          "name": "",
          "type": "address"
        }
      ],
      "name": "ADDRESS_ZERO",
      "type": "error"
    },
    {
      "inputs": [
        {
          "internalType": "bytes32",
          "name": "id",
          "type": "bytes32"
        }
      ],
      "name": "ASSET_ALREADY_EXIST",
      "type": "error"
    },
    {
      "inputs": [
        {
          "internalType": "bytes32",
          "name": "id",
          "type": "bytes32"
        }
      ],
      "name": "ASSET_DOES_NOT_EXIST",
      "type": "error"
    },
    {
      "inputs": [],
      "name": "INVALID_TRANSACTION",
      "type": "error"
    },
    {
      "inputs": [
        {
          "internalType": "address",
          "name": "",
          "type": "address"
        }
      ],
      "name": "ONLY_OWNER",
      "type": "error"
    },
    {
      "anonymous": false,
      "inputs": [
        {
          "indexed": true,
          "internalType": "bytes32",
          "name": "assetId",
          "type": "bytes32"
        },
        {
          "indexed": true,
          "internalType": "address",
          "name": "assetOwner",
          "type": "address"
        }
      ],
      "name": "AssetRegistered",
      "type": "event"
    },
    {
      "anonymous": false,
      "inputs": [
        {
          "indexed": true,
          "internalType": "bytes32",
          "name": "assetId",
          "type": "bytes32"
        },
        {
          "indexed": true,
          "internalType": "address",
          "name": "oldOwner",
          "type": "address"
        },
        {
          "indexed": true,
          "internalType": "address",
          "name": "newOwner",
          "type": "address"
        }
      ],
      "name": "OwnershipTransferred",
      "type": "event"
    },
    {
      "inputs": [],
      "name": "getAllAssets",
      "outputs": [
        {
          "components": [
            {
              "internalType": "bytes32",
              "name": "assetId",
              "type": "bytes32"
            },
            {
              "internalType": "address",
              "name": "assetOwner",
              "type": "address"
            },
            {
              "internalType": "string",
              "name": "description",
              "type": "string"
            },
            {
              "internalType": "uint256",
              "name": "registeredAt",
              "type": "uint256"
            }
          ],
          "internalType": "struct ISwitch.Asset[]",
          "name": "",
          "type": "tuple[]"
        }
      ],
      "stateMutability": "view",
      "type": "function"
    },
    {
      "inputs": [
        {
          "internalType": "bytes32",
          "name": "id",
          "type": "bytes32"
        }
      ],
      "name": "getAsset",
      "outputs": [
        {
          "components": [
            {
              "internalType": "bytes32",
              "name": "assetId",
              "type": "bytes32"
            },
            {
              "internalType": "address",
              "name": "assetOwner",
              "type": "address"
            },
            {
              "internalType": "string",
              "name": "description",
              "type": "string"
            },
            {
              "internalType": "uint256",
              "name": "registeredAt",
              "type": "uint256"
            }
          ],
          "internalType": "struct ISwitch.Asset",
          "name": "",
          "type": "tuple"
        }
      ],
      "stateMutability": "view",
      "type": "function"
    },
    {
      "inputs": [],
      "name": "getMyAssets",
      "outputs": [
        {
          "components": [
            {
              "internalType": "bytes32",
              "name": "assetId",
              "type": "bytes32"
            },
            {
              "internalType": "address",
              "name": "assetOwner",
              "type": "address"
            },
            {
              "internalType": "string",
              "name": "description",
              "type": "string"
            },
            {
              "internalType": "uint256",
              "name": "registeredAt",
              "type": "uint256"
            }
          ],
          "internalType": "struct ISwitch.Asset[]",
          "name": "",
          "type": "tuple[]"
        }
      ],
      "stateMutability": "view",
      "type": "function"
    },
    {
      "inputs": [
        {
          "internalType": "string",
          "name": "description",
          "type": "string"
        }
      ],
      "name": "registerAsset",
      "outputs": [],
      "stateMutability": "nonpayable",
      "type": "function"
    },
    {
      "inputs": [
        {
          "internalType": "bytes32",
          "name": "assetId",
          "type": "bytes32"
        },
        {
          "internalType": "address",
          "name": "newOwner",
          "type": "address"
        }
      ],
      "name": "transferAsset",
      "outputs": [],
      "stateMutability": "nonpayable",
      "type": "function"
    }
  ],
  "bytecode": "0x6080604052348015600f57600080fd5b50610efd8061001f6000396000f3fe608060405234801561001057600080fd5b50600436106100675760003560e01c80632cc3ce80116100505780632cc3ce801461009f57806347002d1d146100bf5780636ad527f3146100c757600080fd5b80631ec040811461006c5780632acada4d14610081575b600080fd5b61007f61007a366004610ac6565b6100da565b005b610089610269565b6040516100969190610c0b565b60405180910390f35b6100b26100ad366004610c70565b610465565b6040516100969190610c89565b61008961059e565b61007f6100d5366004610ca3565b6108e6565b336100ff5760405163e9738b0d60e01b81523360048201526024015b60405180910390fd5b604051339060009061011990839042908690602001610cdf565b60408051601f198184030181529181528151602092830120600081815260019384905291909120909101549091506001600160a01b03161561018a576040517fc5e39c8e000000000000000000000000000000000000000000000000000000008152600481018290526024016100f6565b6000818152600160208190526040909120828155908101805473ffffffffffffffffffffffffffffffffffffffff19166001600160a01b038516179055600281016101d58582610d93565b504260038201556001600160a01b0383166000818152600260209081526040808320805460018181018355918552928420909201869055825491820183558280527f290decd9548b62a8d60345a988386fc84ba6bc95484008f6362f93160ef3e5639091018590555184917f7b8c7b505365aa1b7f9ce04295e6da7c743d877f121b9debcf6a8a9d1806ce4691a350505050565b60008054606091036102c65760408051600080825260208201909252906102c0565b6040805160808101825260008082526020808301829052606093830184905292820152825260001990920191018161028b5790505b50905090565b6000805467ffffffffffffffff8111156102e2576102e2610ab0565b60405190808252806020026020018201604052801561033557816020015b604080516080810182526000808252602080830182905260609383018490529282015282526000199092019101816103005790505b50905060005b60005481101561045f576001600080838154811061035b5761035b610e52565b60009182526020808320909101548352828101939093526040918201902081516080810183528154815260018201546001600160a01b03169381019390935260028101805491928401916103ae90610d10565b80601f01602080910402602001604051908101604052809291908181526020018280546103da90610d10565b80156104275780601f106103fc57610100808354040283529160200191610427565b820191906000526020600020905b81548152906001019060200180831161040a57829003601f168201915b5050505050815260200160038201548152505082828151811061044c5761044c610e52565b602090810291909101015260010161033b565b50919050565b604080516080810182526000808252602080830182905260608385018190528301829052848252600190819052929020909101546001600160a01b03166104c25760405163540f775960e01b8152600481018390526024016100f6565b600082815260016020818152604092839020835160808101855281548152928101546001600160a01b031691830191909152600281018054929391929184019161050b90610d10565b80601f016020809104026020016040519081016040528092919081815260200182805461053790610d10565b80156105845780601f1061055957610100808354040283529160200191610584565b820191906000526020600020905b81548152906001019060200180831161056757829003601f168201915b505050505081526020016003820154815250509050919050565b336000818152600260209081526040808320805482518185028101850190935280835260609594938301828280156105f557602002820191906000526020600020905b8154815260200190600101908083116105e1575b505050505090506000805b825181101561066b57836001600160a01b03166001600085848151811061062957610629610e52565b6020908102919091018101518252810191909152604001600020600101546001600160a01b031603610663578161065f81610e7e565b9250505b600101610600565b50806000036106c85760408051600080825260208201909252906106bf565b6040805160808101825260008082526020808301829052606093830184905292820152825260001990920191018161068a5790505b50935050505090565b60008167ffffffffffffffff8111156106e3576106e3610ab0565b60405190808252806020026020018201604052801561073657816020015b604080516080810182526000808252602080830182905260609383018490529282015282526000199092019101816107015790505b50905060005b83518110156108dd57846001600160a01b03166001600086848151811061076557610765610e52565b6020908102919091018101518252810191909152604001600020600101546001600160a01b0316036108d557600160008583815181106107a7576107a7610e52565b60200260200101518152602001908152602001600020604051806080016040529081600082015481526020016001820160009054906101000a90046001600160a01b03166001600160a01b03166001600160a01b0316815260200160028201805461081190610d10565b80601f016020809104026020016040519081016040528092919081815260200182805461083d90610d10565b801561088a5780601f1061085f5761010080835404028352916020019161088a565b820191906000526020600020905b81548152906001019060200180831161086d57829003601f168201915b50505050508152602001600382015481525050826001856108ab9190610e97565b815181106108bb576108bb610e52565b602002602001018190525082806108d190610eb0565b9350505b60010161073c565b50949350505050565b336109065760405163e9738b0d60e01b81523360048201526024016100f6565b6000828152600160208190526040909120015433906001600160a01b03166109445760405163540f775960e01b8152600481018490526024016100f6565b600083815260016020819052604090912001546001600160a01b038281169116146109a6576040517f7b2a09300000000000000000000000000000000000000000000000000000000081526001600160a01b03821660048201526024016100f6565b806001600160a01b0316826001600160a01b0316036109f1576040517fc60ff7ab00000000000000000000000000000000000000000000000000000000815260040160405180910390fd5b6001600160a01b038216610a235760405163e9738b0d60e01b81526001600160a01b03831660048201526024016100f6565b6000838152600160208181526040808420830180546001600160a01b0388811673ffffffffffffffffffffffffffffffffffffffff19831681179093558287526002855283872080549687018155875293862090940188905590519190921692839187917f0b659dccc8eb950324170e8d9598af5ee04ee070883eb28651a96788721fbf8391a450505050565b634e487b7160e01b600052604160045260246000fd5b600060208284031215610ad857600080fd5b813567ffffffffffffffff811115610aef57600080fd5b8201601f81018413610b0057600080fd5b803567ffffffffffffffff811115610b1a57610b1a610ab0565b604051601f8201601f19908116603f0116810167ffffffffffffffff81118282101715610b4957610b49610ab0565b604052818152828201602001861015610b6157600080fd5b81602084016020830137600091810160200191909152949350505050565b6000815180845260005b81811015610ba557602081850181015186830182015201610b89565b506000602082860101526020601f19601f83011685010191505092915050565b805182526001600160a01b0360208201511660208301526000604082015160806040850152610bf76080850182610b7f565b606093840151949093019390935250919050565b6000602082016020835280845180835260408501915060408160051b86010192506020860160005b82811015610c6457603f19878603018452610c4f858351610bc5565b94506020938401939190910190600101610c33565b50929695505050505050565b600060208284031215610c8257600080fd5b5035919050565b602081526000610c9c6020830184610bc5565b9392505050565b60008060408385031215610cb657600080fd5b8235915060208301356001600160a01b0381168114610cd457600080fd5b809150509250929050565b6001600160a01b0384168152826020820152606060408201526000610d076060830184610b7f565b95945050505050565b600181811c90821680610d2457607f821691505b60208210810361045f57634e487b7160e01b600052602260045260246000fd5b601f821115610d8e57806000526020600020601f840160051c81016020851015610d6b5750805b601f840160051c820191505b81811015610d8b5760008155600101610d77565b50505b505050565b815167ffffffffffffffff811115610dad57610dad610ab0565b610dc181610dbb8454610d10565b84610d44565b6020601f821160018114610df55760008315610ddd5750848201515b600019600385901b1c1916600184901b178455610d8b565b600084815260208120601f198516915b82811015610e255787850151825560209485019460019092019101610e05565b5084821015610e435786840151600019600387901b60f8161c191681555b50505050600190811b01905550565b634e487b7160e01b600052603260045260246000fd5b634e487b7160e01b600052601160045260246000fd5b600060018201610e9057610e90610e68565b5060010190565b81810381811115610eaa57610eaa610e68565b92915050565b600081610ebf57610ebf610e68565b50600019019056fea26469706673582212202cdad78ec8984f1d51e4b07540b53c559ae50e8f75bedc7d18042a466699b30b64736f6c634300081d0033",
  "linkReferences": {},
  "deployedLinkReferences": {}
}